:020000040800F2
:200000000050002001010008F9060008F9060008F9060008F9060008F90600080000000043
:20002000000000000000000000000000F9060008F906000800000000F90600081901000889
:200040001B0100081B0100081B0100081B0100081B0100081B0100081B0100081B01000880
:200060001B0100081B0100081B0100081B0100081B0100081B0100081B0100081B01000860
:200080001B0100081B0100081B0100081B010008792E00081B0100081B0100081B010008B5
:2000A0001B0100081B0100081B0100081B0100081B0100081B0100081B0100081B01000820
:2000C0001B0100081B0100081B0100081B0100081B010008450E00081B0100081B010008C9
:2000E0001B0100081B0100081B010008DFF80CD000F03CF800480047FD2F0008005000208A
:200100000648804706480047FEE7FEE7FEE7FEE7FEE7FEE7FEE7FEE7FEE7FEE7210C00080E
:20012000ED00000840EA01039B0703D009E008C9121F08C0042AFAD203E011F8013B00F85A
:20014000013B521EF9D27047D2B201E000F8012B491EFBD270470022F6E710B513460A4690
:2001600004461946FFF7F0FF204610BD064C074D06E0E06840F0010394E807009847103410
:20018000AC42F6D3FFF7B6FF243700086437000810B50E48806940F01D000C498861012146
:2001A0000B4800F095F90B490B4800F008F90B49094800F004F90A490A4800F000F90A4963
:2001C0000A4800F0FCF800F0CDFA10BD00100240000230004035000800080140443500089A
:2001E00048350008000C01404C3500080010014008B50A4909684FF47A72B1FBF2F1891C6F
:200200000622B1FBF2F148430146009100BF00BF009A521E0092FBD100BF08BD000000203A
:2002200030B500F00F010D4B042404FB01331A6810F0800F08D048F6CF731340074C0425EE
:2002400005FB0144236007E04CF68F731340034C042505FB0144236030BD0000005C00408F
:2002600070B500F00F02104C042505FB0244236810F0800F0BD001F030045C4048F6BF7565
:200280002C40094D042606FB02552C600AE001F440545C404BF68F752C40034D042606FB53
:2002A00002552C6070BD0000005C004030B5044604254FF4302000F06FF80546042D17D1EC
:2002C0000C48006940F002000A49086108464461006940F0400008614FF4302000F05CF867
:2002E00005460448006941F6FD71084001490861284630BD0020024004200B49C96811F0F7
:20030000010F01D001200EE00749C96811F0040F01D0022007E00449C96811F0100F01D00F
:20032000032000E004207047002002400348006940F080000149086170470000002002404D
:2003400070B504460D460426F00200F025F80646042E11D10948006940F0010007490861AE
:200360002580F00200F018F806460448006941F6FE71084001490861304670BD002002403F
:200380000248034948600348486070472301674500200240AB89EFCD00B502460423FFF739
:2003A000ABFF034603E0FFF7A7FF0346521E012B01D1002AF7D102B90523184600BD2DE90E
:2003C000F041024600250026002000230024002791F803C00CF00F0591F803C01CF0100FF8
:2003E00003D091F802C04CEA050591F800C0BCF1000F31D0146800202BE04FF0010C0CFAA0
:2004000000F3B1F800C00CEA03069E4220D183004FF00F0C0CFA03F7BC4305FA03FC4CEAA0
:20042000040491F803C0BCF1280F06D14FF0010C0CFA00FCC2F814C00AE091F803C0BCF1EE
:20044000480F05D14FF0010C0CFA00FCC2F810C0401C0828D1D31460B1F800C0BCF1FF0FCF
:2004600034DD546800202EE000F1080C4FF0010808FA0CF3B1F800C00CEA03069E4221D1F9
:2004800083004FF00F0C0CFA03F7BC4305FA03FC4CEA040491F803C0BCF1280F05D100F14D
:2004A000080C08FA0CF8C2F8148091F803C0BCF1480F07D100F1080C4FF0010808FA0CF859
:2004C000C2F81080401C0828CED35460BDE8F081F0B50A46002300240021002500F0004623
:2004E000B6F1004F02D11D4EF16901E01B4E7168C0F3034583B200F44016B6F5401F08D1EE
:2005000021F07061154E766826F07066134F7E6012E000F48016B6F5801F06D1032606FAC6
:2005200005F4A14341F0706106E0460D360103FA06F6B14341F0706122B1460D360103FA23
:2005400006F6314300F00046B6F1004F02D1034EF16101E0014E7160F0BD0000000001409A
:200560002DE9F04704460D464FF0FF0A2078D02872DB2078D7286FDC207805F8010B14F8DD
:20058000010BD038082868D2DFE800F004121518213356725048076805F8017B380A05F808
:2005A000010B380C05F8010B380E05F8010B74E0FFF7E6FE71E0FFF7B9FE6EE0276838460C
:2005C000FFF774FE042801D04FF0FF0A65E0D4F80080A68806E018F8011BFF2902D04FF064
:2005E000FF0A04E03000A6F101018EB2F3D100BF53E02768A688382E02DD4FF0FF0A1AE00B
:20060000A41D12E014F8019B2EB114F8011B49EA0129701E86B249463846FFF791FE042897
:2006200002D04FF0FF0A05E0BF1C3000A6F101018EB2E7D100BF30E0D4F80080A6883E2E6A
:2006400002DD4FF0FF0A12E0002005F8010B09E026B998F800A005E023E01AE018F8010B62
:2006600005F8010B3000A6F101018EB2F0D114E000BFBFF34F8F1948006800F4E060184906
:200680000843001D15490860BFF34F8F00BF00BFFEE76D1E4FF0FF0A00BF00BF85F800A0CB
:2006A00017E01048006890B10F4BDFF840C0DCF800C003EB8C110E4BDFF838C0DCF800C036
:2006C00003EB8C10074B1B685A68904701E0FF202870BDE8F0870000002004E00CED00E091
:2006E0000000FA0514000020F812002064000020F80200205C00002072B61749086880F318
:20070000088800BF00F02EF8002412E000F070F8FA20FFF76DFD00F063F800F043F8FA20FC
:20072000FFF766FD00F036F84FF47A70FFF760FD641C052CEADB00BFBFF34F8F0748006846
:2007400000F4E06006490843001D04490860BFF34F8F00BF00BFFEE7000000080CED00E025
:200760000000FA0510B50848806940F00800064988614FF44050054908600549034814389E
:20078000FFF71DFE10BD000000100240140C0140203500084FF4005001490860704700006F
:2007A000140C01404FF400500149086070470000100C014000B5024612F0010F02D0FFF7A8
:2007C000F1FF01E0FFF7E6FF00BD00000348006880F4005001490860704700000C0C014077
:2007E0004FF480500149086070470000140C01404FF480500149086070470000100C014043
:2008000000B5024612F0010F02D0FFF7F1FF01E0FFF7E6FF00BD000070B5002400F044FA21
:20082000054615F0040F01D044F0400415F0020F01D044F0400415F0010F01D044F010047F
:2008400000F050FA054615F0080F01D044F0080415F0040F01D044F0020415F0020F01D0DC
:2008600044F0010400F00CFA08B144F0040405480068604005D0A0B200F020FE08B10148C8
:20088000046070BD1800002010F0010F09D000BF0949096821F0F00141F04001064A1160EF
:2008A00009E000BF0449096821F0F00141F07001014A116000BF7047040C014010B5F020D6
:2008C0000D49086048150D49086000BF0B481038006820F0F00040F040000849103908600B
:2008E00000BF074904481038FFF769FD054902481038FFF764FD10BD10080140140C01403B
:20090000303500083435000810B504490448FFF756FD04490448FFF752FD10BD3835000832
:20092000000801403C350008000C014010B530200D49086048150D4908600D490A481038CA
:20094000FFF73DFD0B4908481038FFF738FD00BF06481038006820F0F00040F040000349D7
:200960001039086000BF10BD10080140140C0140283500082C35000810B50748806940F085
:20098000200005498861881504490860044903481438FFF714FD10BD001002401408014047
:2009A0002435000829B1064A92690243044B9A6104E0034A92698243014B9A617047000033
:2009C0000010024030B500210022002400232D4D6D6805F00C0121B1042905D0082923D10C
:2009E00005E0294D056022E0274D05601FE0254D6D6805F47012234D6D6805F48034022582
:200A000005EB92421CB9214D554305600BE01D4D6D6815F4003F03D01C4D5543056002E045
:200A2000194D5543056002E0174D056000BF00BF144D6D6805F0F0010909154D6B5C056866
:200A4000DD4045600F4D6D6805F4E061090A104D6B5C4568DD4085600A4D6D6805F46051AD
:200A6000C90A0B4D6B5C4568DD40C560054D6D6805F44041890B074D6B5CC568B5FBF3F580
:200A8000056130BD0010024000127A0000093D006C0000207C00002010B500F001F810BD3C
:200AA0000CB50020019000903248006840F480303049086000BF2F48006800F4003000903B
:200AC0000198401C0190009818B90198B0F5104FF1D12848006810F4003F02D0012000902A
:200AE00001E0002000900098012842D12248006840F01000204908600846006820F00300E5
:200B000008600846006840F00100086019484068184948600846406848600846406840F444
:200B2000806048600846406820F47C1048600846406840F4A20048600846006840F08070A5
:200B4000086000BF0B48006810F0007FFAD00948406820F00300074948600846406840F040
:200B60000200486000BF0348406800F00C000828F9D10CBD001002400020024010B50021C0
:200B800000200022214B5B6803F00C0121B1042906D0082928D107E01D4B1E4C236027E0A2
:200BA0001B4B1C4C236023E0184B5B6803F47010164B5B6803F48032022303EB904022B9B9
:200BC000154B4343134C23600DE0104B5B6813F4003F04D0104B43430E4C236003E00C4B30
:200BE00043430C4C236003E0094B0A4C236000BF00BF064B5B68C3F30313084CE15C054B45
:200C00001B68CB40034C236010BD00000010024000127A000000002000093D00040000203F
:200C200010B51348006840F001001149086008464068104908400E494860084600680E4996
:200C400008400B4908600846006820F4802008600846406820F4FE0048604FF41F008860C4
:200C6000FFF71AFF4FF000600449086010BD0000001002400000FFF8FFFFF6FE08ED00E034
:200C800001480068704700004800002008B50121684600F037F8012802D19DF8000008BD82
:200CA0004FF0FF30FBE7000000200C49097811F0010F01D040F002000849097811F0040FF4
:200CC00001D040F004000649096831B90349097811F0020F01D040F002007047400000206C
:200CE000480000200020704701B50121684600F073F8012802D19DF8000008BD4FF0FF3010
:200D0000FBE7000030B5024600201FE04B1E99B2104BB3F904300F4CB4F90640A34215D09E
:200D20000C4C63885C1C0B4D6C8005F10804E45C02F8014B2B465B8803F03F032C4663804E
:200D40002346DB885B1C1BB2E380401C0029DDD130BD0000A002002010B5252000F01F0223
:200D600001219140164A430942F8231000BF00201449086014490860144908710820887107
:200D8000002048714FF4E1300860084600F0F8FB48210F48FFF7DFF948210E48FFF7DBF976
:200DA000252000F01F020121914042094FF0E02303EB8202C2F8001100BF012010BD000073
:200DC00080E100E044000020480000204C00002060020020A80200202DE9F04104460D466A
:200DE00000261FE0681E85B2144880881349C988401A07B2402F15DA14F8012B0F4908886F
:200E0000411C0E4B198003F108010A541846008800F03F000839088008468088401C00B2E6
:200E20008880761C002DDDD12EB1012240F22771034800F0C2F83046BDE8F0815802002076
:200E40000038014070B5354800883549086040F22771324800F087F828B332480068012870
:200E600003D12E4800F03FF924E02F48B0F904002D49B1F90610884216D02B484688701C25
:200E8000294A508002F10800815D244800F030F92548408800F03F00234948800846C08883
:200EA000401C00B2C88005E0002240F227711B4800F083F840F22551184800F054F858B3EE
:200EC0001A4880881949C988401A05B2402D23DA124800F003F9C4B214490888411C134A17
:200EE000118002F108010C5444B902210B4800F02DF818B101200E49086002E000200C497D
:200F000008600A48008800F03F000849088008468088401C00B2888070BD00000038014075
:200F2000400000204400002058020020A00200204800002021B1828942F40052828104E0FD
:200F400082894DF6FF731A408281704702460020B1F5007F00D100BF13880B4201D00120C6
:200F600000E00020704770B502460024002300250020A1F510666A3E00D100BFC1F3421572
:200F800001F01F03012606FA03F3012D02D19689334006E0022D02D1168A334001E0968A92
:200FA00033400C12012606FA04F41688344013B10CB1012000E0002070BDF0B5034600248E
:200FC000002600250020A1F510676A3F00D100BF1846C1F3421401F01F06012707FA06F5BE
:200FE000012C01D10C3004E0022C01D1103000E014301AB107682F43076002E00768AF4318
:201000000760F0BD2DE9F04786B005460E460024A24600BFA1460027B08900B100BF2F46A3
:201020002C8A4CF6FF700440F08804432C82AC894EF6F3100440B088318908437189084356
:201040000443AC81AC8A4FF6FF400440B0890443AC8201A8FFF7B6FC1F48874202D1DDF847
:2010600010A001E0DDF80CA0A88910F4004F08D00AEBCA0000EB0A1031684900B0FBF1F8C8
:2010800007E00AEBCA0000EB0A1031688900B0FBF1F86420B8FBF0F004012009642101FB29
:2010A0001089A88910F4004F08D0322000EBC900B0FBF1F000F00700044308E0322000EB46
:2010C00009106421B0FBF1F000F00F0004432C8106B0BDE8F0870000003801400146888851
:2010E000C0F308007047818941F0010181817047C1F30802828070470146002070470000F3
:2011000070B506460C460E4800680E490968884213D90B4800680B490968451AAC4200DD26
:201120002C462246074801683046FEF7FBFF0548006820440349086000E00024204670BD54
:20114000AC000020B000002001460020704700002DE9F04707460C46B846244800682449AA
:201160000968A0EB010923480088A0EB0906002E02DC0020BDE8F087B44200DD3446002522
:201180001D4800681D49096888421AD31A48006820441B49174A12881144884211D91848FE
:2011A00014490988084414490968451A2A46414611480068FEF7B6FFA844641B10480E494C
:2011C000086054B1224641460B480068FEF7AAFF094800682044084908602C440348006861
:2011E0002044024908602046C4E700008C0000209000002070350008940000209800002052
:20120000CE01002010B504460648006800B110BD01200449086000F007F800200149086005
:2012200000BFF4E78000002010B53848006800B910BD3748006837490968441A34B93648A0
:20124000006818B9002031490860F1E71CB932480068002857D031480068314909688842DF
:2012600003D83048008884420FD12C48006820442D492C4A12881144884206D92A48294945
:201280000988084425490968441A28482849097830F81100A04204DA24482549097830F856
:2012A00011402449097841F0800022461B49096801F0A8FD19480068204418490860154818
:2012C0000068204413490860174816490988084412490968884202D11348104908600C480A
:2012E00000680C49096888420AD110481049097830F81100A04203D101200749086002E03F
:2013000000200549086000BF92E70000840000208C0000209000002088000020980000205F
:201320009400002070350008CE01002078350008D10000206D35000810B50446114800683D
:2013400028B111480068401C0F49086010BD01200C4908600D49086000F01EF800200B49F4
:201360000860084908600A4800680A490968884206D007490968074A1268881AFFF7E4FE28
:2013800000BFE3E79C000020A4000020A0000020AC000020B000002010B5194800681949F8
:2013A000401A19490988081A1849194A127831F81210884217DB124801681648007801F0DF
:2013C000B1F804460E48006820440D4908601248006898B11148006880B90F480068401E18
:2013E0000D4908600AE001200D4908600B48006820B109480068401C0749086010BD000040
:20140000AC0000200E0200207235000878350008D10000206E350008A4000020A00000204C
:20142000A800002010B5044614F0040F02D02046FFF782FF14F0080F02D02046FFF7E2FEE6
:2014400010BD704708B501216846FFF759FE012802D19DF8000008BD4FF0FF30FBE7014641
:20146000002070470020704710B5104800F04EF8D0B10E4800780E4908700C480088000A67
:2014800048700A480068000C887008480068000EC87006480079087104484079487103488F
:2014A00080798871012010BD0020FCE7B60000200C01002010B500F03BF810BD10B5044682
:2014C0000F480078D0B1A1200E4908702020487000208870C8700871487102208871002077
:2014E000C8710C72201248720749097841F080000A22044901F086FC012010BD0020FCE7EA
:20150000C30000204E0200206C35000801460748007908710548807988710448407948714A
:201520000248006808600120704700004C00002010B501210846FFF735FA01210420FFF7B7
:2015400031FA01218803FFF72DFAFFF705FC05490548FEF734FF05490348FEF730FF0120FE
:2015600010BD000014370008000801401837000810B5FFF7F1FB10BD014601207047000018
:2015800070B50546284CA879082801D0002070BD0020A080687920B1012809D002280BD1FE
:2015A00002E00020208109E04FF48060208105E04FF4C060208101E00020E8E700BF2879C2
:2015C00020B1012809D002280BD102E00020E08009E04FF40050E08005E04FF44050E080DC
:2015E00001E00020D3E700BF287910490871A87988716879487128680860286820600C2016
:2016000060810020A08121460948FFF7FBFC012240F225510648FFF7D0FC01210448FFF7C4
:2016200089FC0120B3E70000E80200204C0000200038014001B501216846FFF789FD012850
:2016400002D19DF8000008BD4FF0FF30FBE7000010B50020174908601749086017490860D0
:20166000174908601749086017481849086018490860002017490860174908601749086071
:201680001749086017481849086018490860002017490880FFF76CFF4FF4165015490860B9
:2016A000002008714871082088710846FFF768FF10BD000080000020840000208800002053
:2016C0008C00002090000020CE01002094000020980000209C000020A0000020A400002013
:2016E000A80000200E020020AC000020B0000020B4000020B600002010B5FFF7A9FF10BD7C
:2017000010B528480068B8B92748006827490968884211D124480068254988420CD001204E
:2017200020490860224820490860204908600020204908601B4908601F480068D0B119485E
:201740000068B8B91B480068A0B9012015490860FFF722FE0020134908601348006813498C
:201760000968884206D010490968104A1268881AFFF7EAFC1148006890B91148006878B940
:201780001048006810490968401A09D001200B4908600B490860FFF747FD002007490860E1
:2017A00010BD00009C000020AC000020B00000200E020020A8000020A400002080000020A8
:2017C000840000208C000020900000200146002070470020704701460020704710B50446E7
:2017E000024804802046FFF7C7FE10BDB400002010B50E4800780D49497840EA01200B4910
:20180000897840EA01400949C97840EA01600849086006480079087104484079487103483C
:20182000807988710846FFF7ABFE10BD0C010020B600002010B504462046FEF7F1FC43F26D
:2018400030012046FEF70CFD10BD000010B50246937803F00F019088937813F0800F0AD07C
:20186000294B1B88294C246804EB01142360431C23F0010020E0244B1B88244C246804EB59
:201880000114A3603E280ED900F11F0323F01F000123C3EB401343F400431C4C246804EB1C
:2018A0000114E36008E0431C23F001004302174C246804EB0114E360134B1B880344124C54
:2018C0002380D37813F0030306D0012B07D0022B08D0032B0FD10BE04FF400700BE04FF459
:2018E000806008E0002000230BB140F4807002E04FF4C06000BF00BF0843054B042404FB78
:201900000133186010BD00003C00002038000020005C004030B94021034A118011460988EE
:2019200080311180704700003C00002000F01EBB70B14FF480710A4A11600121094A116089
:2019400000211160121D11601115121F116006E00321044A11609115014A121D116070477C
:2019600010080140405C004010B51048808810490978884202DD0E48047801E00B48848878
:2019800014B900200B490870084822460168802001F038FA04460548006820440349086093
:2019A00008468088001B888010BD0000D400002055350008D200002010B5084801680020CB
:2019C00000F0B0FD04460548006820440349086008468088001B888010BD0000D400002019
:2019E000704710B5044642F220012046FEF738FC10BD10B5044643F220012046FEF730FC84
:201A000010BD000010B5044614F0020F70D001F0C7F9A9490978C809FFF7E2FFA648C08893
:201A2000A6498880A4480078C0F3411010B1012875D1A9E0A04840780C2871D2DFE800F0C0
:201A4000060DA11BA129464D4E62719400F0D4FE00B9B5E0FFF788FF94E0002000F02CFF69
:201A600000B9ADE001F0A4F99548006810B194480068804786E0012000F01EFF00B99FE0B5
:201A800001F096F98E48006810B18D480068804778E000BF8848007810F01F0F06D1864891
:201AA000807840F080008749087001E0002001E000BF012000B983E08249097801F07F009C
:201AC000012101F05BF901F073F95BE000F05CFD00B975E0FFF748FF54E071E000BF764871
:201AE000007810F01F0F04D177487449086002E079E0002001E000BF012000B960E0FFF77C
:201B000033FF3FE000F050FF00B959E001F050F96E48006810B16D480068804732E04EE006
:201B20002FE000BF6448007800F01F00012812D16548007860B16048007965490978884248
:201B400006DA5D480079634908445C49086001E0002004E001E0002001E000BF012000B922
:201B60002EE0FFF701FF0DE001F010F800B927E001F01EF95848006810B15748006880471C
:201B800000E01DE000BF2DE04B48007810F01F0004D0012803D002280FD10DE010E000F0CB
:201BA00071F900B10AE000F0DFF900B106E000F0E9F800B102E003E002E001E012E000BF06
:201BC0003D480078C00906D13B48C08818B1002001F0DEF802E0802001F0DAF80020374908
:201BE000888000BF00BF14F0040F36D032480078C00930D13148808860B3FFF7DDFE2F48AA
:201C0000808838BB2C480078C0F3411010B1012818D100E017E02848007810F01F0004D054
:201C2000012803D002280BD109E00CE000F090F800B106E000F054F800B102E003E002E02A
:201C400001E007E000BF802001F0A2F800201B49888000BF01E001F0B3F814F0080F1ED001
:201C6000154800780121B1EBD01F08D11348808810B91A48007890B1FFF776FE0FE0114810
:201C8000007810F0800F0AD00E48007800F07F000C49087000210B48007801F06FF814F011
:201CA000400F02D00020FFF7C5FD14F0800F02D08020FFF7BFFD10BDDC000020D4000020B7
:201CC000E0350008C2000020C3000020D8350008D00000202C000020DC350008D2000020C6
:201CE00010B51848007918490978884205D01548007916490978884222D11248407820B16F
:201D000002280AD020281AD111E0FFF762FD18B101F04EF8012010BD11E00A494888FFF74E
:201D20005AFD18B101F044F80120F4E707E0FFF75FFD18B101F03CF80120ECE700BF00BFC1
:201D40000020E8E7DC0000206A3500086B35000810B50A4800790A49097888420CD10748EF
:201D60004078092807D100F09DFB18B101F020F8012010BD00BF00BF0020FAE7DC000020DF
:201D80005635000810B53A4800793A490978884205D03748007938490978884266D13448D6
:201DA0004078042833D007DC78B1012812D002281BD0032859D11DE0202832D0212835D026
:201DC00022283ED0232850D145E02C482C490860012010BDFFF746FB30B12848284908607A
:201DE000FFF7C2FD0120F4E73FE02448244908600120EEE71E494888FFF731FB30B11F483B
:201E00001F490860FFF7B0FD0120E2E72DE018494888FFF771F918B100F0CAFF0120D8E765
:201E200023E01648164908600120D2E7FFF71CFB30B1124812490860FFF796FD0120C8E73C
:201E400013E00B494888FFF7C9FC18B100F0B0FF0120BEE709E006494888FFF7B7FC18B108
:201E600000F0A6FF0120B4E700BF00BF0020B0E7DC0000206A3500086B3500080C01002064
:201E8000D400002010B5314800793149097888425AD12E4840780C2855D2DFE800F054060D
:201EA0002E4154545454541D394C00F0F5F990B12648C078012803D126482749086006E07F
:201EC0002248C078032802D1244823490860FFF74BFD012010BD36E01C48C078022803D146
:201EE0001F481D49086006E01848C078032802D11A48194908600120ECE700F0B5F930B192
:201F0000184815490860FFF72FFD0120E2E71AE000F0A0FA18B100F04BFF0120DAE712E034
:201F200000F0B0F930B10F480B490860FFF71CFD0120CFE707E000F0ABFA18B100F038FFC2
:201F40000120C7E700BF00BF0020C3E7DC000020563500084D010020D40000203600002023
:201F60008E0100200C0100200020704700200B4908700B4908600B4908600B4908600B493A
:201F800008800B4908800B4908600B4908600B4908800B4908600B4908807047E500002035
:201FA000E8000020EC000020F0000020F4000020F6000020F8000020FC000020000100207E
:201FC000040100200801002070B506466648008866490988884224DB6548006808BB00200B
:201FE0006449086060490880634801780123421C184601F0E3F85D4908800846008880B196
:202000005D485C4908605D480078012804DC08460068401C086004E054480088401C53496E
:2020200008805248008800285ED15548006818B100205349086057E052480068002853D029
:202040004E48007801281CDC4E48006800284BD0002049490870444908800223464A521CAE
:202060000021012001F0AAF8404908800846008818B14148401C3F490860002041490860F4
:2020800032E03D48047800BF202C00DB00240120A0403C490968084222D0601C364908707D
:2020A000002031490880601CC1B20223324A521C012001F083F82D4908800846008838B1B6
:2020C0002D482C49086029480088401C274908800120A0402B49096881432A48016002E002
:2020E000601CC4B2D0E700BF2048008810B920480068A0B31D4800881B490988401A85B229
:2021000021482249097830F81100A84204DA1E481E49097830F811501D49097841F08000FA
:202120002A461449096800F06DFE124800682844104908600C48008828440B4908800846A5
:2021400000881449098888420ADA0F480F49097830F81100A84203D101200549086002E07B
:2021600000200349086070BDF6000020F4000020F8000020F00000204C0100206235000800
:20218000E8000020EC0000205E350008D1000020573500086435000838B505462248008840
:2021A00028B922482249086000201F490880204801682048007800F0B5F984B21C480068A0
:2021C00020441B4908601848008820441649088064B10846008818490988884206DA1748B6
:2021E0001749097830F81100A0421BDD15480078012809DC012000900B4803880B4A002103
:20220000022001F009F90AE00120009006480088431E06480178421C022001F0FDF800208A
:202220000149088038BD0000000100208D010020FC00002058350008663500085E35000819
:20224000D10000206335000810B5044614F0080F02D02046FFF7B8FE14F0040F02D0204690
:20226000FFF79AFF10BD0000034880780349085C0349087001207047DC0000203400002023
:202280000C01002010B500F097FF02490870012010BD00000C01002010B500240C48C07873
:2022A000012804D0022804D0032806D103E0094C03E0002010BD084C00BF00BF044A9178F0
:2022C000D0780023224600F079FF0120F2E70000DC0000204D010020360000202DE9F041C2
:2022E0005148007800287DD00026504801780078401C4E4A10704E48007800EB40020420D6
:202300009040401E814203DB0020484908700126002548480088FF2804DA46480088401CEA
:202320004449088044484249097830F8110041490988884200D10125002462E04FF000082E
:202340009EB13E48005DFF2804DA3C48005D401C3A4908553A48005D38B13848005D384903
:20236000095D884201DB4FF001083548005D3049097801EB41020221914088402E492C4A5D
:20238000127831F81210884204DA2D48005D08B1012000E0002007463DB137B10120A040F0
:2023A000284909680843274908602548005D2649095D884213D02148005D2349095D88426A
:2023C00009DB0120A0401F49096808431D4908600020164908701C48005D19490855B8F106
:2023E000000F00E01EE00AD037B90120A04015490968084313490860002010490855601CF5
:20240000C4B212480078844298DB15B10020094908800C48006828B10D48008810B9002020
:20242000FFF7D2FDBDE8F081C3000020E4000020D1000020300000205A35000832000020B0
:2024400033000020EC0000203400002062350008F40000200B48807830B10A48C278807866
:20246000401E094B1A540BE0002105E00548C078054A5054481CC1B2044800788142F5DBA5
:2024800001207047DC000020340000206235000810B50349887800F0BDFF012010BD0000CA
:2024A000DC00002038B500240D48C078012804D0022804D0032806D103E0002038BD094C38
:2024C00001E0094C00BF00BF0020054A0090D3889178D078224600F09FFF0120EEE70000B1
:2024E000DC0000208E0100203600002010B50548C06940F400000349C86100F005F8FEF715
:202500003BFA10BD0010024014200121814042094FF0E02303EB8202C2F8001100BF704710
:20252000704700002DE9F04305460C4605F00F061248006800EB061080681149022202FBCE
:2025400000190E48006800EB06108089C0F309074FF0000805E039F8041B2180A41C08F101
:202560000108781CB8EB500FF5D34FF440512846FDF776FE3846BDE8F0830000380000205C
:2025800000600040704700001CB56248007810F01F0002D0012875D19DE05E48C078082806
:2025A00071D2DFE800F09404207894940A4B5A485A490860122000908BE05948007828B9A0
:2025C00058480078012801D100201CBD5548007818B955485149086002E054484F490860EC
:2025E0000A20009075E04E48007828B94D480078012801D10020E8E74A48007810B94C487F
:20260000019001E04B480190002407E00198007818B10198418808440190641C3D48807803
:20262000A042F3D10198007808B90020CDE73B49019808600198408800904AE038480078B6
:2026400028B938480078012801D10020BDE73548007810B93848019001E0384801900024FD
:2026600007E00198007818B10198418808440190641C28488078A042F3D10198007818B9EA
:202680000020A2E72FE022E02449019808600198408800901DE02A480190002407E001987D
:2026A000007818B10198017808440190641C19488078A042F3D10198007808B9002084E70E
:2026C00016490198086001980078009001E000207BE700BF09E0694601A800F037F808B9B6
:2026E000002072E701E000206FE700BF0B488088009988420CD90949009888800846808860
:2027000010490978491E084202D101200E49087001205AE7DC0000200E360008D4000020CD
:2027200051350008D10000202036000821360008223600088E3600088F3600089036000896
:202740009236000855350008D200002002462048C078212804D0222824D0232833D130E083
:202760001B4800791B4B1B78984201D0002070471948007828B919480078012801D1002054
:20278000F5E71648007810B91548106001E015481060154B1B8810681844144B186009206C
:2027A000086012E00A4800790A4B1B78984201D00020DCE70E480D4B18600E480088086012
:2027C00003E00020D3E70020D1E700BF0120CEE7DC0000205635000851350008D1000020C1
:2027E000223600088E3600080C360008D4000020E83500080A3600082748007810F01F00FC
:2028000004D0012806D0022841D116E02348244B18603EE02348007860B11F480079224B02
:202820001B78984206DA0020204B188018461C4B186001E0002070472BE01748007900F060
:202840008F0111F0800F05D001F00F034FF48030984001E00120884002461248007810B908
:2028600011F00F0F10D11248006810420CD011480068104201D0012000E000200B4B188075
:202880001846074B186001E00020D4E701E00020D1E700BF0120CEE7DC000020C00000202A
:2028A000D4000020C3000020D00000200C010020C4000020C800002070B5064634480078F3
:2028C00010F01F0004D001281DD002285BD11CE02F484088012813D146B100F091FA2D486A
:2028E000008840F002002B4908800BE0002000F087FA2848008820F002002649088001E0C4
:20290000002070BD41E00020FBE72148007900F08F0414F0800F05D004F00F014FF4803083
:20292000884001E00120A04005461B48007838B314F00F0F24D019480068284220D0144847
:202940004088D8B946B1204600F022FA1448006828431349086015E012480068284201D0D0
:202960000120CEE72046FEF765FF2046FFF70AFE0B480068A8430A49086003E00020C0E753
:202980000020BEE701E00020BBE700BF0120B8E7DC000020C0000020C3000020C4000020AD
:2029A000C8000020CC0000202DE9F04100266A48007810F01F0F6FD16748807800286CD033
:2029C0006648007830B966480078012802D10020BDE8F0816248007808B9624D00E0624D6F
:2029E0007FE06878022804D0042853D0052874D154E0687958498978884247D156488078AA
:202A00005A49087028795A490870002403E0002058490855641C584800888442F7D301245D
:202A200014E00120A04055490968084202D02046FEF7D7FF4FF48030A0405049096808421E
:202A400003D044F08000FEF7CCFF641C102CE8D34FF00110494908600020494908604949C2
:202A600008600120FEF756FFE87910F0400F06D04548008840F001004349088009E0424830
:202A8000008820F001004049088002E06888054427E022E0EE7820E058E027E0E6B9A87804
:202AA00000F08F0414F0800F05D004F00F014FF48030884001E00120A04007462F4800685E
:202AC00038432E4908602846FEF7C0FE2046FEF790FF204600F042F900BF00BF2878054499
:202AE00000BF287800287FF47CAF26E000201F490870012414E00120A0402049096808426D
:202B000002D02046FEF76DFF4FF48030A0401B490968084203D044F08000FEF762FF641CCD
:202B2000102CE8D34FF001101449086000201449086014490860FEF7EDFE074880780B4964
:202B40000978884201D0002042E701E000203FE700BF01203CE70000DC000020513500085C
:202B6000D1000020223600088E360008C3000020D00000202C00002052350008C4000020A6
:202B8000C8000020CC000020C00000202DE9F05F0027B846BB46B9464948007800F01F00DF
:202BA00001287CD14748007810B90020BDE8F09F4FF0000A4448007828B944480078012820
:202BC00001D10020F2E74148007808B9404C00E0404C6CE06078022804D004280BD005281A
:202BE00061D11EE0607937490978884202D0608804445CE057E0A77894F803804FF0000916
:202C00002F480079B8420BD12D488078404507D14FF0010A304810F807B0014601F80780DC
:202C200041E027480079B8423CD1A07800F08F0616F0800F05D006F00F014FF480308840BC
:202C400001E00120B04005461D488078404515D12248006828432149086021480068A843A4
:202C60001F4908602046FEF7F1FD3046FEF7C1FE304600F073F849EA050913E0D84511D10D
:202C800019EA050F0ED115480068A8431349086013480068A84312490860304600E00AE019
:202CA000FEF79FFE00BF00BF2078044400BF207800288FD101E0002078E700BF504675E734
:202CC000DC000020C300002051350008D1000020223600088E3600082C000020C40000203A
:202CE000C800002000201A4908604FF40440091F0860402017490880002015490C3108607F
:202D00001448008814490968086012480088403010490880084600880F49096888600D488A
:202D2000008840300B49088048F2FF700A490968C86007484438006805494439086043F28F
:202D400020200860802002490831086070470000445C00403C0000203800002010B50446E5
:202D60002046FDF75DFA10BDFEF7C6BC10B5FFF7B5FABDE81040FEF7C3BC000001B1704722
:202D800040F08002014B1A6000BFF8E74C5C004010B5044641F210012046FDF761FA10BD60
:202DA00010B502490020FFF7BDFB10BDDC00002010B500221146802000F024F810BD0000B5
:202DC00010B502490020FFF7ADFB10BD0C0100200548006840F008000349086008460068D4
:202DE00040F0040008607047405C00400348006820F008000149086070470000405C004094
:202E0000704700002DE9F04707460D46144607F00F061648006800EB0610006814490222F8
:202E200002FB001A4FF0000805E028884AF8040BAD1C08F10108601CB8EB500FF5D30B48EA
:202E4000006800EB061044600A48042101FB060000681FFA80F909F03000102803D030216D
:202E60003846FDF7FDF92046BDE8F0873800002000600040005C004070B55148056815F4A0
:202E8000806F0DD0FFF72EFF00F024FB4D48006810B14C48006880476FF480604849086077
:202EA00015F4006F0BD0FFF793FF4748006810B14548006880476FF400604149086015F405
:202EC000805F0BD0FFF792FF4048006810B13F48006880476FF480503949086015F4007FA5
:202EE00009D03B48006810B13948006880476FF400703349086015F4804F0AD0354800684F
:202F000018B102203349096888476FF480402C49086015F4005F0AD02E48006818B1012000
:202F20002C49096888476FF40050254908603FE06FF400402249086005F00F0420484438D2
:202F4000042101FB0400066816F4004F19D026F4004048F68F71084019494439042202FBBA
:202F6000041108601C4850F8240050B116F4006F01D0022200E004221046174A52F824105A
:202F8000884716F0800F13D026F0800048F68F7108400B494439042202FB041108600E4807
:202FA00050F8240020B10C4850F824100820884703480068054610F4004FB9D170BD000005
:202FC000445C004080350008843500088835000890350008943500089835000802E008C8A9
:202FE000121F08C1002AFAD170477047002001E001C1121F002AFBD170470000FDF7C8F81F
:20300000FDF7BCFDFDF7CEFB5648006838B155485549086008460068016854488847FDF736
:20302000B9FB6420FDF7E4F800F046FA012000F0BDF800204E4908601AE04D480168006813
:20304000401C4B4A106011B9FDF7ACFB0DE048480068052802D1FDF79DFB06E0444800685F
:20306000322802D10020424908600A20FDF7C0F800F092F80028E0D0FDF78CFB6420FDF7F5
:20308000B7F800203A4908603A483B4908604FF0FF303A4908603A49086061E032480068A1
:2030A00080B9334801680068401C314A10603548814204D1002011460860FDF787FB00F0EA
:2030C0004BF91BE000F048F9A8B92B480068B0F57A7F02D1FDF766FB07E02748006820B9E7
:2030E000FDF758FB23482449086023480068401E2149086002E01F481F490860FDF78CFBB2
:203100001E480068401C03D1FEF79CF91B4908601A480068401C0BD018490878FDF7E4FDA4
:2031200016490968884203D14FF0FF301349086013480068401C03D1FDF7A8FD10490860A2
:203140000F480068401C0BD00D490878FEF772FA0B490968884203D14FF0FF3008490860B8
:203160009CE7000000400008140000201835000824000020400D0300280000201C000020E3
:203180002000002040420F0010B500F0C5F8BDE81040FEF78FB900000348007808B101201D
:2031A00070470020FCE70000C300002010B504462046FEF7BDFB10BD002070472DE9F04165
:2031C00004460F4615461E46012C02D0032C38D136E026B1012E04D0022E2FD100E000BF9B
:2031E0002CE01948006819490968884202D118480078F8B11748144A126800EB82114022F2
:203200002846FCF78FFF10480068401C0E49086008460068402801D1002008600A480068B2
:203220000A490968884202D10020094908704020BDE8F08101200849087000BF00BF00E085
:2032400000BF00BF0020F3E7680000206400002061000020F81200206000002070B5044650
:203260000E46154623480088854201DD002070BD2148007800283AD00120204908600CE0C9
:203280001D48007848B900201C4908601C4908601C4908801C490880E9E71B4800880028D9
:2032A000EED11A4804702A463146401CFCF73AFF16481349086000201249088012490D80FD
:2032C00013480078012805DC0D480068401C0C49086004E00C480088401C0B490880002023
:2032E000FEF772FE00200B4908550120BFE70020BDE7000064350008C3000020E800002081
:20330000F0000020F6000020F40000204C01002062350008320000200020084908700849DB
:20332000086008490860012007490870002007490870074908600749086070475400002000
:20334000580000205C0000206000002061000020640000206800002010B525480068254964
:203360000968884203D12448007800283DD0234A234B1B6802EB8311224A1D4B1B6802EB02
:203380008310FDF7EDF81A480068441C402C00D1002417480460006816490968884202D19E
:2033A0000020154908701848007860B10020164908701248124A126800EB82114022002007
:2033C000FFF74CFF0FE00E480068441C402C00D100240B48046000680C490968884202D1BC
:2033E00001200B490870012010BD0020FCE700005C0000205800002054000020F81200205D
:2034000064000020F8020020600000206800002061000020704700002DE9F041064688466D
:2034200014461D46069F022E02D0032E36D134E005B933E02078072807D11A48006818B1D9
:20344000184909688868804728E01748007830B11648006816490968884200D11EE0154996
:20346000124A126801EB82102A462146FCF75AFE0E480068401C0D490860084600684028E0
:2034800001D1002008600948006809490968884202D101200449087000E000BF00BFBDE8D0
:2034A000F08100001400002054000020580000205C000020F802002010B50020044908703B
:2034C000FFF762FEFFF72CF8FFF710F810BD0000D1000020094800780949088000200949AB
:2034E0000870094908704FF0011008490860002007490860074908607047000050350008AD
:20350000C0000020C2000020C3000020C4000020C8000020CC000020B50700080108000879
:203520000030021000010210C00000483000031040000048B0000310F0000048000200481E
:20354000F787000008000000FFFF000000E000000000030003400203030001004000400038
:2035600004000101400040000100000101020200400040004000100040004000000000006E
:20358000692D00080000000000000000000000006D2D000800000000051A00084314000865
:2035A000251400084922000800000000000000000000000000000000000000000000000057
:2035C0000000000000000000000000000000000000000000000000002D190008000000009D
:2035E00000000000000000000600FF0901A101150026FF0075089540090181029540090122
:20360000910295010901B102C0002100540012010002EF02014051C201F00001010200013F
:20362000000009026B000301008032080B00020202010309040000010202000305240010F3
:203640000105240101010424020205240600010705810340000209040100020A00000407EA
:203660000502024000000705820240000009040200020300000509210001000122210007A2
:203680000583034000010705030340000100000000000403090412034700440033003200F2
:2036A0002000410052004D00140343004D005300490053002D004400410050001C03430010
:2036C0004D005300490053002D0044004100500020004300440043001C0343004D005300C0
:2036E000490053002D0044004100500020004400430049001E0343004D005300490053009C
:203700002D0044004100500020004700440033003200000000040348000203180004030024
:203720000002030064370008000000200C010000DC2F0008703800080028002008000000A1
:20374000DC2F0008703800080C010020EC210000EC2F000878380008082800204000000001
:20376000EC2F0008006CDC020000000000000000010203040607080900000000FFFFFFFFB8
:20378000000000000000000000000000000000000000000000000000000000000060004089
:2037A000000000000000000000000000000000000000000000000000000000000000000009
:2037C0000000000000000000000000000000000000000000010203040102030406070809B7
:2037E0000204060800000000000000000000000000000000000000000000000000000000B5
:203800000000000000000000000000000000000000000000000000000000000000000000A8
:20382000000000000000000000000000000000000000000000000000000000000000000088
:20384000000000000000000000000000000000000000000000000000000000000000000068
:20386000000000000000000000000000000000000000000000000000FFFFFFFFFFFFFFFF50
:20388000FFFFFFFFFFFFFFFFFFFFFFFFFFFFFFFFFFFFFFFFFFFFFFFFFFFFFFFFFFFFFFFF48
:2038A000FFFFFFFFFFFFFFFFFFFFFFFFFFFFFFFFFFFFFFFFFFFFFFFFFFFFFFFFFFFFFFFF28
:2038C000FFFFFFFFFFFFFFFFFFFFFFFFFFFFFFFFFFFFFFFFFFFFFFFFFFFFFFFFFFFFFFFF08
:2038E000FFFFFFFFFFFFFFFFFFFFFFFFFFFFFFFFFFFFFFFFFFFFFFFFFFFFFFFFFFFFFFFFE8
:20400000B56E0008D9470008A96E000870B506460D46307808B9012400E03478012C02D051
:20402000022C0CD105E0012009490870FCF77EFC09E0022006490870FCF740FC03E0002034
:204040002870012070BD00BF2C700120FAE700000828002018B502460B461078547840EAE9
:2040600004210B4800680B4CB0FBF4F0801C0324B0FBF4F041430846009000BF00BF009CAC
:20408000641E0094FBD100BF00201870012018BD0000002040420F0010B5044600200449B4
:2040A0000870FCF731FC00202070012010BD00000828002002460020052A1AD008DC012AEA
:2040C0000FD0022A0ED0032A0DD0042A21D10BE0062A0FD0F02A0ED0FE2A16D0FF2A18D1BB
:2040E0000DE016E015E014E00B4B1B680B6004200FE00EE00DE003230B70012009E04023B4
:204100000B7000234B70022003E040230B70012000BF00BF70470000C86E000870B5044660
:204120000D4613480078022804D000BFFF202870012070BD21780E48C175C07D0C49897DDA
:20414000884200DBF2E7082000F0EAFF6078A17840EA0120E17840EA0140217940EA0166B5
:20416000304601F0FFFE002028700120E1E7000008280020F0B502460E4612F8013B11480A
:2041800083750025002109E012F8014B0D4818304454083020F811502544491C9942F3D34D
:2041A000002108E007481830405C2D1A0548303020F81150491C9942F4D30020307001206E
:2041C000F0BD00000828002070B506460C4611480078022804D000BFFF202070012070BD94
:2041E00031780C48C175C07D0A49897D884200DBF2E70E2000F094FF01F0A4F905460020CE
:2042000020706570280AA070280CE070280E20710520E4E7082800202DE9F04704460D4682
:20422000002005F8010B4FF0010814F8019B12E014F8017B2A462146384601F067FA07F04D
:204240003F0606B94026F01DC608344417F0800F01D03544B0445FEA0900A9F10109E7D11F
:204260004046BDE8F08700002DE9F04F87B006460C46002005900025A346A41CD849087056
:204280008146049016F8011BD648C175C07DD549897D884200DB99E116F8010B069046E1EE
:2042A00016F8017B17F0010F01D00B2000E00A20824617F0020F78D00498002846D0C94844
:2042C000B0F80A80D14514D117F0100F11D100BFF8B201A901F06CFA0546022D24D15FEA87
:2042E0000800A8F101081FD0BD4800780028EFD01AE0B9F10A0F04D04FF00A09484600F060
:204300000FFF00BF01A90E2001F052FA0546022D08D15FEA0800A8F1010803D0B048007832
:204320000028EFD000200490012D00D005E1019804F8010B0198000A04F8010B0198000C0D
:2043400004F8010B0198000E04F8010B17F0100F60D03078717840EA0120B17840EA0140E0
:20436000F17840EA01600390361D9E4880890290D14503D0D146484600F0D2FE9948B0F80B
:204380000A8000BFF8B2002101F012FA0546022D08D15FEA0800A8F1010803D090480078A3
:2043A0000028EFD0012D01D0C7E056E000BF8D48B0F80A8000BFF8B201A901F0F9F9054633
:2043C000022D08D15FEA0800A8F1010803D0844800780028EFD0012D00D00EE081480069C6
:2043E000019908400399884207D00298411E029118B17B4800780028D9D000BF7948006954
:20440000019908400399884201D045F01005012D22D092E0049800281ED1D14503D0D146F4
:20442000484600F07DFE6F48B0F80A8000BFF8B2002101F0BDF90546022D08D15FEA0800C5
:20444000A8F1010803D0664800780028EFD0012D00D072E00120049062E0049878B3B9F122
:204460000A0F04D04FF00A09484600F059FE5D48B0F80A8000BF01A90E2001F099F90546EC
:20448000022D08D15FEA0800A8F1010803D0544800780028EFD0012D00D04EE0019804F892
:2044A000010B0198000A04F8010B0198000C04F8010B0198000E04F8010B0020049030788D
:2044C000717840EA0120B17840EA0140F17840EA01600190361D17F0200F04D0414801990F
:2044E000016101251CE0D14503D0D146484600F017FE3C48B0F80A8000BFF8B201A901F0EB
:2045000057F90546022D08D15FEA0800A8F1010803D0334800780028EFD0012D00D00CE06E
:204520000598401C05902E48007800B105E00698411E069100287FF4B3AE00BF012D44D1D7
:20454000B9F10A0F04D04FF00A09484600F0E8FD049830B32348B0F80A8000BF01A90E205C
:2045600001F026F90546022D08D15FEA0800A8F1010803D01A4800780028EFD0012D00D053
:2045800024E0019804F8010B0198000A04F8010B0198000C04F8010B0198000E04F8010B6F
:2045A00013E01048B0F80A8000BF00210E2001F0FFF80546022D08D15FEA0800A8F1010842
:2045C00003D0074800780028EFD000BF05988BF800008BF80150A4EB0B0007B0BDE8F08F32
:2045E00004280020082800202DE9FC5F04460D464FF0000B0026A946ED1C00206249087066
:2046000014F8011B6148C175C07D6049897D884200DBADE02078617840EA0128A41CB8F148
:20462000000F00D1A4E014F8017B17F0010F01D00B2000E00A200090009800F071FD17F0E4
:20464000020F4FD05148B0F80AA000BFF8B2002101F0AEF80646022E08D15FEA0A00AAF1DB
:20466000010A03D0484800780028EFD0012E00D07EE031E0B8F1000F06D100980A2802D0D4
:204680000A2000F04DFD0E274048B0F80AA000BFF8B201A901F08CF80646022E08D15FEA81
:2046A0000A00AAF1010A03D0374800780028EFD0012E00D05CE0019805F8010B0198000A19
:2046C00005F8010B0198000C05F8010B0198000E05F8010B0BF1010B5FEA0800A8F1010878
:2046E000C8D144E024E02078617840EA0120A17840EA0140E17840EA01600190241D234898
:20470000B0F80AA000BFF8B201A901F051F80646022E08D15FEA0A00AAF1010A03D01A4877
:2047200000780028EFD0012E00D021E00BF1010B5FEA0800A8F10108D5D100980A2802D0DD
:204740000A2000F0EDFC1148B0F80AA000BF00210E2001F02DF80646022E08D15FEA0A00DF
:20476000AAF1010A03D0084800780028EFD000BF89F800B04FEA1B2089F8010089F8026048
:20478000A5EB0900BDE8FC9F042800200828002070B504460D46207810B1012810D107E098
:2047A000627802F001000B4A1268116888470BE0627802F00100074A12685168884703E027
:2047C000FF202870012070BD00BF002028700120F9E700000028002070B506460D463078A8
:2047E000802807DB30789F2804DC2946304600F0C3F870BD307805F8010B16F8010B172819
:2048000074D2DFE800F00C141A205A607BAF96252BAFAFAFAFAF30363C42484E5400307896
:20482000691CFFF747FC04462C70A01CE1E729463046FFF7ADFF044699E029463046FFF72B
:20484000E5FB044693E02846FFF726FC04468EE029463046FFF7FEFB044688E0284600F099
:2048600090F8044683E02946304600F069FB04467DE02946304600F029FB044677E029461A
:20488000304600F00DFC044671E02946304600F09FF804466BE029463046FFF7BDFC04462F
:2048A00065E029463046FFF765FC04465FE029463046FFF789FC044659E02946304600F036
:2048C00019FC044653E02B480078012802D002280DD105E02946304600F08CF804460BE0E5
:2048E00029463046FFF7C0FC044605E03AE0002028706870022400BF00BF38E01D480078AF
:20490000012802D002280CD105E02946304600F021FA04460BE029463046FFF765FE044603
:2049200005E0002028706870A870032400BF00BF1DE010480078012802D002280CD105E091
:204940002946304600F024F8044609E029463046FFF7E4FB044603E0FF202870022048E744
:2049600000BF04E0FF2005F8010C012041E700BF601C3EE7082800200246FF200870012072
:204980007047014600BF0020487008700220704738B504460D460D480078012803D0FF20BF
:2049A0002870012038BD6078A17840EA0120E17840EA0140217940EA0160009069460020C5
:2049C00001F0E6FC002028700120EBE70828002010B50246137803F00300401C044C20753A
:2049E000C3F380040248447500200870012010BD082800202DE9F04F85B006460C4600205C
:204A000003900025A146A41CD049087082460290761C16F8010B049045E116F8018B18F044
:204A2000020F7DD0BAF1000F3CD0C948478908F01100012811D100BF6946404601F0A8FCD4
:204A40000546022D1CD13800A7F101018FB217D0BE4800780028EFD012E000BF69460E2002
:204A600001F096FC0546022D08D13800A7F101018FB203D0B54800780028EFD04FF0000AD5
:204A8000012D00D016E1009804F8010B0098000A04F8010B0098000C04F8010B0098000E85
:204AA00004F8010B18F0100F5AD03078717840EA0120B17840EA0140F17840EA016B361DDB
:204AC000A3488089019018F0010F15D0A048478900BF0021404601F05BFC0546022D08D19B
:204AE0003800A7F101018FB203D0984800780028EFD0012D00D0DDE000BF9548478900BFAB
:204B00006946404601F044FC0546022D0AD13800A7F101018FB205D08C480078002800E09E
:204B200063E0EDD0012D00D00EE08948006900990840584508D00198411E89B2019118B16B
:204B4000824800780028D8D000BF8148006900990840584501D045F01005012D42D0A9E0F0
:204B60007B48478918F0010F19D0BAF1000F39D100BF0021404601F00BFC0546022D08D12C
:204B80003800A7F101018FB203D0704800780028EFD0012D00D08DE04FF0010A22E000BFA2
:204BA0006946404601F0F4FB0546022D08D13800A7F101018FB203D0644800780028EFD09C
:204BC000012D00D076E0009804F8010B0098000A04F8010B0098000C04F8010B0098000EE5
:204BE00004F8010B0020029055E0BAF1000F26D05748478900BF69460E2001F0C9FB05460B
:204C0000022D08D13800A7F101018FB203D04F4800780028EFD0012D00D04BE0009804F8F3
:204C2000010B0098000A04F8010B0098000C04F8010B0098000E04F8010B4FF0000A307873
:204C4000717840EA0120B17840EA0140F17840EA01600090361D18F0200F04D03C4800998D
:204C60000161012517E03A48478900BF6946404601F08EFB0546022D08D13800A7F10101D0
:204C80008FB203D0314800780028EFD0012D00D010E0012002900398401CC0B203902B4818
:204CA000007800B106E00498411EC9B2049100287FF4B3AE00BF012D3DD1BAF1000F25D034
:204CC0002348478900BF69460E2001F061FB0546022D08D13800A7F101018FB203D01B4814
:204CE00000780028EFD0012D00D025E0009804F8010B0098000A04F8010B0098000C04F868
:204D0000010B0098000E04F8010B14E0029890B10F48478900BF00210E2001F039FB054665
:204D2000022D08D13800A7F101018FB203D0074800780028EFD000BF039889F8000089F87B
:204D40000150A4EB090005B0BDE8F08F04280020082800202DE9F84F04460D464FF0000BB1
:204D60000026A846ED1C002056490870641C2078617840EA012AA41CBAF1000F00D194E0DA
:204D800014F8017B17F0020F4FD017F0010F16D04D48B0F80A9000BFF8B2002101F0F8FA13
:204DA0000646022E08D15FEA0900A9F1010903D0444800780028EFD0012E00D075E02EE088
:204DC000BAF1000F03D117F0010F00D00E273E48B0F80A9000BFF8B2694601F0D9FA064639
:204DE000022E08D15FEA0900A9F1010903D0354800780028EFD0012E00D056E0009805F83B
:204E0000010B0098000A05F8010B0098000C05F8010B0098000E05F8010B0BF1010B5FEA2E
:204E20000A00AAF1010ACBD13EE024E02078617840EA0120A17840EA0140E17840EA0160E0
:204E40000090241D2048B0F80A9000BFF8B2694601F09EFA0646022E08D15FEA0900A9F1F5
:204E6000010903D0174800780028EFD0012E00D01BE00BF1010B5FEA0A00AAF1010AD5D1F6
:204E80001148B0F80A9000BF00210E2001F080FA0646022E08D15FEA0900A9F1010903D0E0
:204EA000084800780028EFD000BF88F800B04FEA1B2088F8010088F80260A5EB0800BDE840
:204EC000F88F0000042800200828002030B502460C461078557840EA0520957840EA054010
:204EE000D57840EA05631BB9FF202070012030BD11480068B3EB900F04D301200F4D687018
:204F0000686014E000200D4D6870581E0A4D2D6800EB5500B0FBF3F1022905D9891E881CFE
:204F20000325B0FBF5F100E0012104484160002020700120DBE700000000002008280020C6
:204F40002DE9F0470646884634787578B078F17840EA0120317940EA0140717940EA0167E4
:204F600015F0010F07D014F0010F02D001F08EF901E001F07DF915F0020F07D014F0020F9D
:204F800002D001F0D5F901E001F0C4F915F0040F02D0A01001F0DAF915F0200F02D060111C
:204FA00000BF00BF15F0800F02D0E011FBF76CFC002F52D03748874200D9074600BF002024
:204FC0004FF0E02188613448006878433349B0FBF1F04FF0E02148610520086100BF00BF0C
:204FE00015F0010F04D001F049F9604000D024E015F0020F05D001F093F990EA640000D00B
:205000001BE015F0040F05D001F098F990EAA40000D012E015F0200F05D000BF002090EAE4
:20502000641000D009E015F0800F05D001F0A4F990EAE41000D000E007E000BF4FF0E02049
:205040000069C0F300400028CAD000BF00BF00204FF0E021086100BF00BF01F00FF98146AD
:2050600001F05EF949EA400901F068F949EA800901F07AF949EAC000002140EA411901F071
:205080007BF949EAC010C4B288F800400120BDE8F0870000C0C62D000000002040420F00C2
:2050A00070B504460D4614F8016B0EB94FF480762146304601F0C4FE00202870012070BD20
:2050C00010B50948006840080849B0FBF1F0801E0749486064210648418101200449087517
:2050E000FBF712FC10BD00000000002040420F000828002002461078084B18725078937862
:2051000040EA032305484381D078137940EA032302488381002008700120704708280020FC
:2051200010B504460548407818B1204600F008F802E0204600F0A6F810BD00000828002049
:2051400070B5054601F0F4F801F092F800BF00BF01F09CF800BF00BF01F08AF800BF00BF15
:2051600001F094F800BF00BF01F0D4F801F080F800BF00BF01F08AF800BF00BF01F078F83E
:2051800000BF00BF01F082F800BF00BF012001F0DDF83B48C17D203030F8114008E001F05E
:2051A00067F800BF00BF01F071F800BF00BF641E002CF4D13248C17D1830405C441E0CE0DD
:2051C000E8B201F0C3F801F053F800BF00BF01F05DF800BF00BF6D08641E002CF0D12848B7
:2051E000C17D303030F811402CB3E8B201F0AEF801F03EF800BF00BF01F048F800BF00BF34
:20520000012001F0A3F8641E08E001F031F800BF00BF01F03BF800BF00BF641E002CF4D1CA
:2052200001F086F801F024F800BF00BF01F02EF800BF00BF0DE001F07BF8E8B201F086F885
:2052400001F016F800BF00BF01F020F800BF00BF00BF01F00DF800BF00BF01F017F800BF58
:2052600000BF01F057F801F003F800BF00BF01F00DF800BF00BF012001F068F870BD0000B2
:205280000828002038B5054601F052F800F0F0FFAB494868009000BF00BF0099491E009129
:2052A000FBD100BF00F0F2FFA5494868009000BF00BF0099491E0091FBD100BF00F0D8FFF3
:2052C0009F494868009000BF00BF0099491E0091FBD100BF00F0DAFF99494868009000BF62
:2052E00000BF0099491E0091FBD100BF01F012F800F0BEFF92494868009000BF00BF0099F9
:20530000491E0091FBD100BF00F0C0FF8C494868009000BF00BF0099491E0091FBD100BFAC
:2053200000F0A6FF86494868009000BF00BF0099491E0091FBD100BF00F0A8FF804948681F
:20534000009000BF00BF0099491E0091FBD100BF012000F0FBFF7A48C17D203030F811404F
:2053600018E000F085FF76494868009000BF00BF0099491E0091FBD100BF00F087FF7049F9
:205380004868009000BF00BF0099491E0091FBD100BF641E002CE4D16948C17D1830405CFD
:2053A000441E1CE0E8B200F0D1FF00F061FF64494868009000BF00BF0099491E0091FBD11D
:2053C00000BF00F063FF5E494868009000BF00BF0099491E0091FBD100BF6D08641E002C18
:2053E000E0D15748C17D303030F81140002C54D0E8B200F0ABFF00F03BFF514948680090BE
:2054000000BF00BF0099491E0091FBD100BF00F03DFF4B494868009000BF00BF0099491E74
:205420000091FBD100BF012000F090FF641E18E000F01EFF42494868009000BF00BF009947
:20544000491E0091FBD100BF00F020FF3C494868009000BF00BF0099491E0091FBD100BF5B
:20546000641E002CE4D100F063FF00F001FF34494868009000BF00BF0099491E0091FBD1EF
:2054800000BF00F003FF2E494868009000BF00BF0099491E0091FBD11CE000F049FFE8B2FB
:2054A00000F054FF00F0E4FE25494868009000BF00BF0099491E0091FBD100BF00F0E6FEBB
:2054C0001F494868009000BF00BF0099491E0091FBD100BF00F0CCFE19494868009000BF6F
:2054E00000BF0099491E0091FBD100BF00F0CEFE13494868009000BF00BF0099491E00916A
:20550000FBD100BF00F006FF00F0B2FE0C494868009000BF00BF0099491E0091FBD100BF3C
:2055200000F0B4FE06494868009000BF00BF0099491E0091FBD100BF012000F007FF38BD94
:2055400008280020F8B500F0F3FE00F091FE6E494868009000BF00BF0099491E0091FBD11C
:2055600000BF00F093FE68494868009000BF00BF0099491E0091FBD100BF00F0CBFE00F0B7
:2055800077FE61494868009000BF00BF0099491E0091FBD100BF00F079FE5B4948680090C7
:2055A00000BF00BF0099491E0091FBD100BF00F05FFE55494868009000BF00BF0099491EA8
:2055C0000091FBD100BF00F061FE4F494868009000BF00BF0099491E0091FBD100BF4A485C
:2055E000C57D18E000F044FE47494868009000BF00BF0099491E0091FBD100BF00F046FEA1
:2056000041494868009000BF00BF0099491E0091FBD100BF6D1E002DE4D100241F251EE053
:2056200000F026FE38494868009000BF00BF0099491E0091FBD100BF00F096FE064600F03B
:2056400025FE31494868009000BF00BF0099491E0091FBD100BF44EAC67464086D1E002D47
:20566000DED100F065FE00F003FE27494868009000BF00BF0099491E0091FBD100BF00F0FD
:2056800073FE064600F002FE1F494868009000BF00BF0099491E0091FBD100BF44EAC674B3
:2056A00000F0E6FD18494868009000BF00BF0099491E0091FBD100BF00F0E8FD12494868FC
:2056C000009000BF00BF0099491E0091FBD100BF00F020FE00F0CCFD0B494868009000BF86
:2056E00000BF0099491E0091FBD100BF00F0CEFD05494868009000BF00BF0099491E009177
:20570000FBD100BF2046F8BD082800202DE9F84F04460F46904604F03F0606B9402614F05F
:20572000400F02D000F004FE01E000F0F3FD38E017F801AB00254FF0080926E00AF0FF004E
:2057400000F004FE00F094FD18494868009000BF00BF0099491E0091FBD100BF00F004FEA9
:20576000834600F093FD11494868009000BF00BF0099491E0091FBD100BF4FEA5A0A6D089A
:2057800045EACB15A9F10109761EB9F1000F01D0002ED3D125FA09F514F0800F01D008F8E5
:2057A000015B002EC4D1BDE8F88F00000828002070B504460D460648407820B129462046E0
:2057C00000F008F870BD2946204600F03FF9F9E7082800202DE9F0470646884600F0A8FD83
:2057E00000F046FD00BF00BF00F050FD00BF00BF00F090FD00F03CFD00BF00BF00F046FDE6
:2058000000BF00BF00F034FD00BF00BF00F03EFD00BF00BF8C48C47D08E000F029FD00BFF0
:2058200000BF00F033FD00BF00BF641E002CF4D1C6F3470000F08AFD00F01AFD00BF00BF9C
:2058400000F092FD074600F021FD00BF00BF4FEA4709C6F3870000F079FD00F009FD00BF0C
:2058600000BF00F081FD074600F010FD00BF00BF49EA0709C6F3C70000F068FD00F0F8FC37
:2058800000BF00BF00F070FD074600F0FFFC00BF00BF49EA8709B9F1010F0AD000F048FDEB
:2058A00000F0E6FC00BF00BF00F0F0FC00BF00BFA0E016F0020F52D000251F240EE000F03F
:2058C000D7FC00BF00BF00F04FFD074600F0DEFC00BF00BF45EAC7756D08641E002CEED159
:2058E0005948817DC07D081A441E14B300F0C0FC00BF00BF00F038FD074600F0C7FC00BF73
:2059000000BF641E08E000F0B3FC00BF00BF00F0BDFC00BF00BF641E002CF4D100F008FDB2
:2059200000F0A6FC00BF00BF00F0B0FC00BF00BF0DE000F0FDFC00F09BFC00BF00BF00F072
:2059400013FD074600F0A2FC00BF00BF00BF45EAC775B8F1000F4CD0C8F8005049E0D8F8D7
:2059600000501F240CE0E8B200F0F0FC00F080FC00BF00BF00F08AFC00BF00BF6D08641E5D
:20598000002CF0D13048817DC07D081A441E14B3E8B200F0DBFC00F06BFC00BF00BF00F0F6
:2059A00075FC00BF00BF641E08E000F061FC00BF00BF00F06BFC00BF00BF641E002CF4D17B
:2059C00000F0B6FC00F054FC00BF00BF00F05EFC00BF00BF0DE000F0ABFCE8B200F0B6FCDF
:2059E00000F046FC00BF00BF00F050FC00BF00BF00BF00BF00F03CFC00BF00BF00F046FCE7
:205A000000BF00BF00F086FC00F032FC00BF00BF00F03CFC00BF00BF012000F097FC0A485E
:205A2000047A08E000F024FC00BF00BF00F02EFC00BF00BF00BF2000A4F10104F2D109F0A5
:205A4000FF00BDE8F0870000082800202DE9F8430746894600F06CFC00F00AFCFE49486829
:205A6000009000BF00BF0099491E0091FBD100BF00F00CFCF8494868009000BF00BF00996C
:205A8000491E0091FBD100BF00F044FC00F0F0FBF1494868009000BF00BF0099491E0091EF
:205AA000FBD100BF00F0F2FBEB494868009000BF00BF0099491E0091FBD100BF00F0D8FBAD
:205AC000E5494868009000BF00BF0099491E0091FBD100BF00F0DAFBDF494868009000BFD2
:205AE00000BF0099491E0091FBD100BFDA48C47D18E000F0BDFBD8494868009000BF00BFE9
:205B00000099491E0091FBD100BF00F0BFFBD2494868009000BF00BF0099491E0091FBD189
:205B200000BF641E002CE4D1C7F3470000F00EFC00F09EFBC8494868009000BF00BF009957
:205B4000491E0091FBD100BF00F00EFC064600F09DFBC1494868009000BF00BF0099491E2C
:205B60000091FBD100BF4FEA4608C7F3870000F0EDFB00F07DFBB8494868009000BF00BF42
:205B80000099491E0091FBD100BF00F0EDFB064600F07CFBB0494868009000BF00BF00990E
:205BA000491E0091FBD100BF48EA0608C7F3C70000F0CCFB00F05CFBA7494868009000BFB4
:205BC00000BF0099491E0091FBD100BF00F0CCFB064600F05BFBA0494868009000BF00BFFA
:205BE0000099491E0091FBD100BF48EA8608B8F1010F1AD000F09CFB00F03AFB96494868EB
:205C0000009000BF00BF0099491E0091FBD100BF00F03CFB90494868009000BF00BF009903
:205C2000491E0091FBD100BF42E117F0020F7CD000251F241EE000F01BFB874948680090DE
:205C400000BF00BF0099491E0091FBD100BF00F08BFB064600F01AFB7F494868009000BF1C
:205C600000BF0099491E0091FBD100BF45EAC6756D08641E002CDED17748817DC07D081AF1
:205C8000441E002C52D000F0F3FA73494868009000BF00BF0099491E0091FBD100BF00F0F1
:205CA00063FB064600F0F2FA6B494868009000BF00BF0099491E0091FBD100BF641E18E056
:205CC00000F0D6FA64494868009000BF00BF0099491E0091FBD100BF00F0D8FA5E49486864
:205CE000009000BF00BF0099491E0091FBD100BF641E002CE4D100F01BFB00F0B9FA5649CF
:205D00004868009000BF00BF0099491E0091FBD100BF00F0BBFA50494868009000BF00BFAD
:205D20000099491E0091FBD11DE024E000F000FB00F09EFA48494868009000BF00BF0099AA
:205D4000491E0091FBD100BF00F00EFB064600F09DFA41494868009000BF00BF0099491EAC
:205D60000091FBD100BF45EAC675B9F1000F01D0C9F800509BE0D9F800501F241CE0E8B28D
:205D800000F0E4FA00F074FA33494868009000BF00BF0099491E0091FBD100BF00F076FA21
:205DA0002D494868009000BF00BF0099491E0091FBD100BF6D08641E002CE0D12648817D53
:205DC000C07D081A441E002C54D0E8B200F0BEFA00F04EFA20494868009000BF00BF009978
:205DE000491E0091FBD100BF00F050FA1A494868009000BF00BF0099491E0091FBD100BFA9
:205E0000641E18E000F034FA13494868009000BF00BF0099491E0091FBD100BF00F036FA94
:205E20000D494868009000BF00BF0099491E0091FBD100BF641E002CE4D100F079FA00F07C
:205E400017FA05494868009000BF00BF0099491E0091FBD100BF01E00828002000F016FAD8
:205E60003F494868009000BF00BF0099491E0091FBD11CE000F05CFAE8B200F067FA00F062
:205E8000F7F937494868009000BF00BF0099491E0091FBD100BF00F0F9F93149486800901C
:205EA00000BF00BF0099491E0091FBD100BF00BF00F0DEF92A494868009000BF00BF0099F8
:205EC000491E0091FBD100BF00F0E0F924494868009000BF00BF0099491E0091FBD100BF2F
:205EE00000F018FA00F0C4F91D494868009000BF00BF0099491E0091FBD100BF00F0C6F904
:205F000017494868009000BF00BF0099491E0091FBD100BF012000F019FA1148047A17E055
:205F200000F0A6F90E494868009000BF00BF0099491E0091FBD100BF00F0A8F9084948680F
:205F4000009000BF00BF0099491E0091FBD100BF2000A4F10104E3D108F0FF00BDE8F88392
:205F60000828002038B5054600F0E2F900F080F9BE494868009000BF00BF0099491E00910F
:205F8000FBD100BF00F082F9B8494868009000BF00BF0099491E0091FBD100BF00F0BAF98D
:205FA00000F066F9B1494868009000BF00BF0099491E0091FBD100BF00F068F9AB494868C9
:205FC000009000BF00BF0099491E0091FBD100BF00F04EF9A5494868009000BF00BF00991B
:205FE000491E0091FBD100BF00F050F99F494868009000BF00BF0099491E0091FBD100BF23
:206000009A48C47D18E000F033F998494868009000BF00BF0099491E0091FBD100BF00F09E
:2060200035F992494868009000BF00BF0099491E0091FBD100BF641E002CE4D1002000F00A
:2060400085F900F015F989494868009000BF00BF0099491E0091FBD100BF00F017F983494C
:206060004868009000BF00BF0099491E0091FBD100BF00F0FDF87D494868009000BF00BFDD
:206080000099491E0091FBD100BF00F0FFF877494868009000BF00BF0099491E0091FBD122
:2060A00000BF00F0E5F871494868009000BF00BF0099491E0091FBD100BF00F0E7F86B493D
:2060C0004868009000BF00BF0099491E0091FBD100BF1F241CE0E8B200F038F900F0C8F83C
:2060E00062494868009000BF00BF0099491E0091FBD100BF00F0CAF85C494868009000BFC5
:2061000000BF0099491E0091FBD100BF6D08641E002CE0D15548817DC07D081A441E002C48
:2061200051D0E8B200F012F900F0A2F84F494868009000BF00BF0099491E0091FBD100BFAD
:2061400000F0A4F849494868009000BF00BF0099491E0091FBD100BF641E18E000F088F85D
:2061600042494868009000BF00BF0099491E0091FBD100BF00F08AF83C494868009000BFC4
:2061800000BF0099491E0091FBD100BF641E002CE4D100F0CDF800F06BF8344948680090FC
:2061A00000BF00BF0099491E0091FBD100BF00F06DF82E494868009000BF00BF0099491EBB
:2061C0000091FBD11CE000F0B3F8E8B200F0BEF800F04EF825494868009000BF00BF009990
:2061E000491E0091FBD100BF00F050F81F494868009000BF00BF0099491E0091FBD100BFA2
:2062000000F036F819494868009000BF00BF0099491E0091FBD100BF00F038F813494868F8
:20622000009000BF00BF0099491E0091FBD100BF00F070F800F01CF80C494868009000BF84
:2062400000BF0099491E0091FBD100BF00F01EF806494868009000BF00BF0099491E0091BF
:20626000FBD100BF012000F071F838BD08280020202001490860704714080140024800681C
:20628000C0F34010704700000C0801402020014908607047100801400448006810F0100F1A
:2062A00001D0012070470020FCE700000808014010F0010F03D01021034A116003E01021FB
:2062C000014A121D116070471008014000BF0748006820F4702040F4002004490860102070
:2062E00002491031086000BF704700000008014000BF0748006820F4702040F440300449E0
:206300000860102002491431086000BF704700000008014010200149086070471408014038
:2063200002480068C0F300107047000008080140102001490860704710080140024800683C
:20634000C0F3C010704700000C08014010F0010F03D08021034A116003E08021014A121D6E
:20636000116070471008014002480068C0F3801070470000080801400448006810F4007F68
:2063800001D0012070470020FCE70000080C014070B504460D460648407820B1294620468E
:2063A00000F008F870BD2946204600F08DF9F9E7082800202DE9F04706468A460027012094
:2063C000FFF776FFFFF754FF00BF00BFFFF75EFF00BF00BF3546E8B2FFF76AFFFFF748FF09
:2063E00000BF00BFFFF752FF00BF00BF2F447510E8B2FFF75DFFFFF73BFF00BF00BFFFF7D2
:2064000045FF00BF00BF2F44B510E8B2FFF750FFFFF72EFF00BF00BFFFF738FF00BF00BF57
:206420002F44F510E8B2FFF743FFFFF721FF00BF00BFFFF72BFF00BF00BF2F44F8B2FFF7CD
:2064400037FFFFF715FF00BF00BFFFF71FFF00BF00BF0020FFF72CFFFFF70AFF00BF00BF2E
:20646000FFF714FF00BF00BF0120FFF721FFFFF7FFFE00BF00BFFFF709FF00BF00BFFFF77B
:2064800025FF9048047D08E0FFF7F2FE00BF00BFFFF7FCFE00BF00BF641E002CF4D1FFF75C
:2064A000E7FE00BF00BFFFF7F7FE0546FFF7EEFE00BF00BFA846FFF7DBFE00BF00BFFFF7B2
:2064C000EBFE0546FFF7E2FE00BF00BF48EA4508FFF7CEFE00BF00BFFFF7DEFE0546FFF762
:2064E000D5FE00BF00BF48EA8508B8F1010F7BD116F0020F3ED0A1460027202410E0FFF72A
:20650000B7FE00BF00BFFFF7C7FE0546FFF7BEFE00BF00BF2F444FEA590949EAC579641E11
:20652000002CECD1FFF7A4FE00BF00BFFFF7B4FE0546FFF7ABFE00BF00BF87EA050010F0D6
:20654000010F01D04FF00808BAF1000F01D0CAF800905C48047D08E0FFF78AFE00BF00BF25
:20656000FFF794FE00BF00BF641E002CF4D1FFF7BFFE32E05348047D08E0FFF779FE00BFAD
:2065800000BFFFF783FE00BF00BF641E002CF4D1FFF7AEFEDAF80090002720240FE009F07D
:2065A000FF00FFF785FEFFF763FE00BF00BFFFF76DFE00BF00BF4F444FEA5909641E002CD3
:2065C000EDD1F8B2FFF774FEFFF752FE00BF00BFFFF75CFE00BF00BF00BF3A48047A7CB16D
:2065E0000020FFF765FE09E011E0FFF741FE00BF00BFFFF74BFE00BF00BF641E002CF4D165
:206600000120FFF755FE08F0FF00BDE8F087B8F1020F02D0B8F1040F3ED12A48407D78B14E
:2066200016F0020F0CD0212408E0FFF721FE00BF00BFFFF72BFE00BF00BF641E002CF4D197
:206640002048047D08E0FFF713FE00BF00BFFFF71DFE00BF00BF641E002CF4D1FFF748FEA6
:206660001848407D90B116F0020F0FD10020FFF71FFE212408E0FFF7FBFD00BF00BFFFF703
:2066800005FE00BF00BF641E002CF4D10120FFF70FFE08F0FF00B8E70A48007D00F1210467
:2066A00008E0FFF7E5FD00BF00BFFFF7EFFD00BF00BF641E002CF4D10120FFF7F9FD08F0C4
:2066C000FF00A2E70828002003B587B0002003900120FFF7EDFDFFF7CBFDFE484068019002
:2066E0000198009000BF00BF0098401E0090FBD100BFFFF7CBFDF748406801900198009083
:2067000000BF00BF0098401E0090FBD100BF079805900598C0B20190FFF7CAFDFFF7A8FDBE
:20672000EC48406801900198009000BF00BF0098401E0090FBD100BFFFF7A8FDE5484068C4
:2067400001900198009000BF00BF0098401E0090FBD100BF059903980844039007984010E9
:2067600005900598C0B20190FFF7A2FDFFF780FDD848406801900198009000BF00BF009844
:20678000401E0090FBD100BFFFF780FDD148406801900198009000BF00BF0098401E00908E
:2067A000FBD100BF05990398084403900798801005900598C0B20190FFF77AFDFFF758FD1A
:2067C000C448406801900198009000BF00BF0098401E0090FBD100BFFFF758FDBD484068C4
:2067E00001900198009000BF00BF0098401E0090FBD100BF05990398084403900798C010C9
:2068000005900598C0B20190FFF752FDFFF730FDB048406801900198009000BF00BF00986B
:20682000401E0090FBD100BFFFF730FDA948406801900198009000BF00BF0098401E009065
:20684000FBD100BF05990398084403900398C0B20190FFF72DFDFFF70BFD9E4840680190BA
:206860000198009000BF00BF0098401E0090FBD100BFFFF70BFD9748406801900198009021
:2068800000BF00BF0098401E0090FBD100BFFFF70FFDFFF7EDFC8F4840680190019800904F
:2068A00000BF00BF0098401E0090FBD100BFFFF7EDFC8848406801900198009000BF00BFBA
:2068C0000098401E0090FBD100BF0120FFF7F0FCFFF7CEFC7F48406801900198009000BFFC
:2068E00000BF0098401E0090FBD100BFFFF7CEFC7848406801900198009000BF00BF0098D0
:20690000401E0090FBD100BFFFF7E0FC7148007D02901EE0FFF7ACFC6E4840680190019840
:20692000009000BF00BF0098401E0090FBD100BFFFF7ACFC6748406801900198009000BFCA
:2069400000BF0098401E0090FBD100BF0298401E029002980028DDD1FFF78AFC5D484068A4
:2069600001900198009000BF00BF0098401E0090FBD100BFFFF790FC0590FFF787FC5548A1
:20698000406801900198009000BF00BF0098401E0090FBD100BF05980690FFF769FC4D48E3
:2069A000406801900198009000BF00BF0098401E0090FBD100BFFFF76FFC0590FFF766FC98
:2069C0004448406801900198009000BF00BF0098401E0090FBD100BFDDE9051040EA4100F4
:2069E0000690FFF745FC3B48406801900198009000BF00BF0098401E0090FBD100BFFFF760
:206A00004BFC0590FFF742FC3248406801900198009000BF00BF0098401E0090FBD100BFFB
:206A2000DDE9051040EA81000690069801287CD1079810F0020F79D00020049003902020A6
:206A400002902DE0FFF714FC2248406801900198009000BF00BF0098401E0090FBD100BF36
:206A6000FFF71AFC0590FFF711FC1A48406801900198009000BF00BF0098401E0090FBD1DE
:206A800000BF0599039808440390049840080490DDE9040140EAC17004900298401E029063
:206AA00002980028CED1FFF7E3FB0A48406801900198009000BF00BF0098401E0090FBD11D
:206AC00000BFFFF7E9FB0590FFF7E0FB01484068019001E0082800200198009000BF00BF5D
:206AE0000098401E0090FBD100BF05990398484010F0010F01D008200690089810B1089923
:206B000004980860CD48007D029021E0FFF7B0FBCA48406801900198009000BF00BF009821
:206B2000401E0090FBD100BF01E0C8E016E0FFF7ADFBC248406801900198009000BF00BFD5
:206B40000098401E0090FBD100BF0298401E029002980028DAD1FFF7CBFB7EE0B748007D97
:206B600002901EE0FFF784FBB448406801900198009000BF00BF0098401E0090FBD100BF23
:206B8000FFF784FBAD48406801900198009000BF00BF0098401E0090FBD100BF0298401EA2
:206BA000029002980028DDD1FFF7A2FB08980068049000200390202002902AE00498C0B207
:206BC0000190FFF775FBFFF753FB9C48406801900198009000BF00BF0098401E0090FBD164
:206BE00000BFFFF753FB9548406801900198009000BF00BF0098401E0090FBD100BFDDE9FE
:206C00000301084403900498400804900298401E029002980028D1D10398C0B20190FFF797
:206C200047FBFFF725FB8548406801900198009000BF00BF0098401E0090FBD100BFFFF748
:206C400025FB7E48406801900198009000BF00BF0098401E0090FBD100BF7848007A029091
:206C6000029828B30020FFF723FB1EE0FFF700FB7248406801900198009000BF00BF00984A
:206C8000401E0090FBD100BFFFF700FB6B48406801900198009000BF00BF0098401E009071
:206CA000FBD100BF0298401E029002980028DDD10120FFF7FDFA0698C0B209B000BD06981D
:206CC000022802D0069804287ED15C48407D40B3079810F0020F24D0212002901EE0FFF7E0
:206CE000C7FA5648406801900198009000BF00BF0098401E0090FBD100BFFFF7C7FA4F48F6
:206D0000406801900198009000BF00BF0098401E0090FBD100BF0298401E02900298002836
:206D2000DDD14648007D02901EE0FFF7A1FA4348406801900198009000BF00BF0098401E18
:206D40000090FBD100BFFFF7A1FA3C48406801900198009000BF00BF0098401E0090FBD1D1
:206D600000BF0298401E029002980028DDD1FFF7BFFA3248407D40B3079810F0020F2AD1D6
:206D80000020FFF795FA2120029021E0FFF770FA2A48406801900198009000BF00BF009830
:206DA000401E0090FBD100BFFFF770FA2348406801900198009000BF00BF0098401E009029
:206DC000FBD100BF029801E00BE004E0401E029002980028DAD10120FFF76AFA0698C0B2F6
:206DE0006BE71648007D213002901EE0FFF740FA1248406801900198009000BF00BF009883
:206E0000401E0090FBD100BFFFF740FA0B48406801900198009000BF00BF0098401E009010
:206E2000FBD100BF0298401E029002980028DDD10120FFF73DFA0698C0B23EE708280020FA
:206E4000F8B505460C460026002726E017B914F8016B082716F0010F02D0FFF769FA01E0FC
:206E6000FFF758FAFFF704FA0E494868009000BF00BF0099491E0091FBD100BFFFF706FAAF
:206E800008494868009000BF00BF0099491E0091FBD100BF7610781EC7B22800A5F101056E
:206EA000D4D1F8BD0828002001200149087070470428002010B5044602480460FEF700F997
:206EC00010BD000000280020312E3000FFFFFFFFFFFFFFFFFFFFFFFFFFFFFFFFFFFFFFFF22
:206EE000FFFFFFFFFFFFFFFFFFFFFFFFFFFFFFFFFFFFFFFFFFFFFFFFFFFFFFFFFFFFFFFFB2
:206F0000FFFFFFFFFFFFFFFFFFFFFFFFFFFFFFFFFFFFFFFFFFFFFFFFFFFFFFFFFFFFFFFF91
:206F2000FFFFFFFFFFFFFFFFFFFFFFFFFFFFFFFFFFFFFFFFFFFFFFFFFFFFFFFFFFFFFFFF71
:206F4000FFFFFFFFFFFFFFFFFFFFFFFFFFFFFFFFFFFFFFFFFFFFFFFFFFFFFFFFFFFFFFFF51
:00000001FF
